{
	"contracts/BN254.sol": {
		"Bn254": {
			"abi": [
				{
					"inputs": [
						{
							"internalType": "uint256[2]",
							"name": "signature",
							"type": "uint256[2]"
						},
						{
							"internalType": "uint256[4]",
							"name": "pubkey",
							"type": "uint256[4]"
						},
						{
							"internalType": "uint256[2]",
							"name": "message",
							"type": "uint256[2]"
						}
					],
					"name": "verifySingle",
					"outputs": [
						{
							"internalType": "bool",
							"name": "",
							"type": "bool"
						}
					],
					"stateMutability": "view",
					"type": "function"
				}
			],
			"devdoc": {
				"kind": "dev",
				"methods": {},
				"version": 1
			},
			"evm": {
				"assembly": "    /* \"contracts/BN254.sol\":58:1326  contract Bn254 {... */\n  mstore(0x40, 0x80)\n  callvalue\n  dup1\n  iszero\n  tag_1\n  jumpi\n  0x00\n  dup1\n  revert\ntag_1:\n  pop\n  dataSize(sub_0)\n  dup1\n  dataOffset(sub_0)\n  0x00\n  codecopy\n  0x00\n  return\nstop\n\nsub_0: assembly {\n        /* \"contracts/BN254.sol\":58:1326  contract Bn254 {... */\n      mstore(0x40, 0x80)\n      callvalue\n      dup1\n      iszero\n      tag_1\n      jumpi\n      0x00\n      dup1\n      revert\n    tag_1:\n      pop\n      jumpi(tag_2, lt(calldatasize, 0x04))\n      shr(0xe0, calldataload(0x00))\n      dup1\n      0xebbdac91\n      eq\n      tag_3\n      jumpi\n    tag_2:\n      0x00\n      dup1\n      revert\n        /* \"contracts/BN254.sol\":667:1324  function verifySingle(... */\n    tag_3:\n      tag_4\n      0x04\n      dup1\n      calldatasize\n      sub\n      dup2\n      add\n      swap1\n      tag_5\n      swap2\n      swap1\n      tag_6\n      jump\t// in\n    tag_5:\n      tag_7\n      jump\t// in\n    tag_4:\n      mload(0x40)\n      tag_8\n      swap2\n      swap1\n      tag_9\n      jump\t// in\n    tag_8:\n      mload(0x40)\n      dup1\n      swap2\n      sub\n      swap1\n      return\n    tag_7:\n        /* \"contracts/BN254.sol\":814:818  bool */\n      0x00\n        /* \"contracts/BN254.sol\":828:852  uint256[12] memory input */\n      dup1\n        /* \"contracts/BN254.sol\":828:979  uint256[12] memory input = [signature[0], signature[1], nG2x1, nG2x0, nG2y1, nG2y0, message[0], message[1], pubkey[1], pubkey[0], pubkey[3], pubkey[2]] */\n      mload(0x40)\n      dup1\n      0x0180\n      add\n      0x40\n      mstore\n      dup1\n        /* \"contracts/BN254.sol\":856:865  signature */\n      dup7\n        /* \"contracts/BN254.sol\":866:867  0 */\n      0x00\n        /* \"contracts/BN254.sol\":856:868  signature[0] */\n      0x02\n      dup2\n      lt\n      tag_11\n      jumpi\n      tag_12\n      tag_13\n      jump\t// in\n    tag_12:\n    tag_11:\n      0x20\n      mul\n      add\n      mload\n        /* \"contracts/BN254.sol\":828:979  uint256[12] memory input = [signature[0], signature[1], nG2x1, nG2x0, nG2y1, nG2y0, message[0], message[1], pubkey[1], pubkey[0], pubkey[3], pubkey[2]] */\n      dup2\n      mstore\n      0x20\n      add\n        /* \"contracts/BN254.sol\":870:879  signature */\n      dup7\n        /* \"contracts/BN254.sol\":880:881  1 */\n      0x01\n        /* \"contracts/BN254.sol\":870:882  signature[1] */\n      0x02\n      dup2\n      lt\n      tag_14\n      jumpi\n      tag_15\n      tag_13\n      jump\t// in\n    tag_15:\n    tag_14:\n      0x20\n      mul\n      add\n      mload\n        /* \"contracts/BN254.sol\":828:979  uint256[12] memory input = [signature[0], signature[1], nG2x1, nG2x0, nG2y1, nG2y0, message[0], message[1], pubkey[1], pubkey[0], pubkey[3], pubkey[2]] */\n      dup2\n      mstore\n      0x20\n      add\n        /* \"contracts/BN254.sol\":259:336  11559732032986387107991004021392285783925812861821192530917403151452391805634 */\n      0x198e9393920d483a7260bfb731fb5d25f1aa493335a9e71297e485b7aef312c2\n        /* \"contracts/BN254.sol\":828:979  uint256[12] memory input = [signature[0], signature[1], nG2x1, nG2x0, nG2y1, nG2y0, message[0], message[1], pubkey[1], pubkey[0], pubkey[3], pubkey[2]] */\n      dup2\n      mstore\n      0x20\n      add\n        /* \"contracts/BN254.sol\":367:444  10857046999023057135944570762232829481370756359578518086990519993285655852781 */\n      0x1800deef121f1e76426a00665e5c4479674322d4f75edadd46debd5cd992f6ed\n        /* \"contracts/BN254.sol\":828:979  uint256[12] memory input = [signature[0], signature[1], nG2x1, nG2x0, nG2y1, nG2y0, message[0], message[1], pubkey[1], pubkey[0], pubkey[3], pubkey[2]] */\n      dup2\n      mstore\n      0x20\n      add\n        /* \"contracts/BN254.sol\":475:552  17805874995975841540914202342111839520379459829704422454583296818431106115052 */\n      0x275dc4a288d1afb3cbb1ac09187524c7db36395df7be3b99e673b13a075a65ec\n        /* \"contracts/BN254.sol\":828:979  uint256[12] memory input = [signature[0], signature[1], nG2x1, nG2x0, nG2y1, nG2y0, message[0], message[1], pubkey[1], pubkey[0], pubkey[3], pubkey[2]] */\n      dup2\n      mstore\n      0x20\n      add\n        /* \"contracts/BN254.sol\":583:660  13392588948715843804641432497768002650278120570034223513918757245338268106653 */\n      0x1d9befcd05a5323e6da4d435f3b617cdb3af83285c2df711ef39c01571827f9d\n        /* \"contracts/BN254.sol\":828:979  uint256[12] memory input = [signature[0], signature[1], nG2x1, nG2x0, nG2y1, nG2y0, message[0], message[1], pubkey[1], pubkey[0], pubkey[3], pubkey[2]] */\n      dup2\n      mstore\n      0x20\n      add\n        /* \"contracts/BN254.sol\":912:919  message */\n      dup5\n        /* \"contracts/BN254.sol\":920:921  0 */\n      0x00\n        /* \"contracts/BN254.sol\":912:922  message[0] */\n      0x02\n      dup2\n      lt\n      tag_16\n      jumpi\n      tag_17\n      tag_13\n      jump\t// in\n    tag_17:\n    tag_16:\n      0x20\n      mul\n      add\n      mload\n        /* \"contracts/BN254.sol\":828:979  uint256[12] memory input = [signature[0], signature[1], nG2x1, nG2x0, nG2y1, nG2y0, message[0], message[1], pubkey[1], pubkey[0], pubkey[3], pubkey[2]] */\n      dup2\n      mstore\n      0x20\n      add\n        /* \"contracts/BN254.sol\":924:931  message */\n      dup5\n        /* \"contracts/BN254.sol\":932:933  1 */\n      0x01\n        /* \"contracts/BN254.sol\":924:934  message[1] */\n      0x02\n      dup2\n      lt\n      tag_18\n      jumpi\n      tag_19\n      tag_13\n      jump\t// in\n    tag_19:\n    tag_18:\n      0x20\n      mul\n      add\n      mload\n        /* \"contracts/BN254.sol\":828:979  uint256[12] memory input = [signature[0], signature[1], nG2x1, nG2x0, nG2y1, nG2y0, message[0], message[1], pubkey[1], pubkey[0], pubkey[3], pubkey[2]] */\n      dup2\n      mstore\n      0x20\n      add\n        /* \"contracts/BN254.sol\":936:942  pubkey */\n      dup6\n        /* \"contracts/BN254.sol\":943:944  1 */\n      0x01\n        /* \"contracts/BN254.sol\":936:945  pubkey[1] */\n      0x04\n      dup2\n      lt\n      tag_20\n      jumpi\n      tag_21\n      tag_13\n      jump\t// in\n    tag_21:\n    tag_20:\n      0x20\n      mul\n      add\n      mload\n        /* \"contracts/BN254.sol\":828:979  uint256[12] memory input = [signature[0], signature[1], nG2x1, nG2x0, nG2y1, nG2y0, message[0], message[1], pubkey[1], pubkey[0], pubkey[3], pubkey[2]] */\n      dup2\n      mstore\n      0x20\n      add\n        /* \"contracts/BN254.sol\":947:953  pubkey */\n      dup6\n        /* \"contracts/BN254.sol\":954:955  0 */\n      0x00\n        /* \"contracts/BN254.sol\":947:956  pubkey[0] */\n      0x04\n      dup2\n      lt\n      tag_22\n      jumpi\n      tag_23\n      tag_13\n      jump\t// in\n    tag_23:\n    tag_22:\n      0x20\n      mul\n      add\n      mload\n        /* \"contracts/BN254.sol\":828:979  uint256[12] memory input = [signature[0], signature[1], nG2x1, nG2x0, nG2y1, nG2y0, message[0], message[1], pubkey[1], pubkey[0], pubkey[3], pubkey[2]] */\n      dup2\n      mstore\n      0x20\n      add\n        /* \"contracts/BN254.sol\":958:964  pubkey */\n      dup6\n        /* \"contracts/BN254.sol\":965:966  3 */\n      0x03\n        /* \"contracts/BN254.sol\":958:967  pubkey[3] */\n      0x04\n      dup2\n      lt\n      tag_24\n      jumpi\n      tag_25\n      tag_13\n      jump\t// in\n    tag_25:\n    tag_24:\n      0x20\n      mul\n      add\n      mload\n        /* \"contracts/BN254.sol\":828:979  uint256[12] memory input = [signature[0], signature[1], nG2x1, nG2x0, nG2y1, nG2y0, message[0], message[1], pubkey[1], pubkey[0], pubkey[3], pubkey[2]] */\n      dup2\n      mstore\n      0x20\n      add\n        /* \"contracts/BN254.sol\":969:975  pubkey */\n      dup6\n        /* \"contracts/BN254.sol\":976:977  2 */\n      0x02\n        /* \"contracts/BN254.sol\":969:978  pubkey[2] */\n      0x04\n      dup2\n      lt\n      tag_26\n      jumpi\n      tag_27\n      tag_13\n      jump\t// in\n    tag_27:\n    tag_26:\n      0x20\n      mul\n      add\n      mload\n        /* \"contracts/BN254.sol\":828:979  uint256[12] memory input = [signature[0], signature[1], nG2x1, nG2x0, nG2y1, nG2y0, message[0], message[1], pubkey[1], pubkey[0], pubkey[3], pubkey[2]] */\n      dup2\n      mstore\n      pop\n      swap1\n      pop\n        /* \"contracts/BN254.sol\":987:1008  uint256[1] memory out */\n      tag_28\n      tag_29\n      jump\t// in\n    tag_28:\n        /* \"contracts/BN254.sol\":1016:1028  bool success */\n      0x00\n        /* \"contracts/BN254.sol\":1177:1179  32 */\n      0x20\n        /* \"contracts/BN254.sol\":1172:1175  out */\n      dup3\n        /* \"contracts/BN254.sol\":1167:1170  384 */\n      0x0180\n        /* \"contracts/BN254.sol\":1160:1165  input */\n      dup6\n        /* \"contracts/BN254.sol\":1157:1158  8 */\n      0x08\n        /* \"contracts/BN254.sol\":1150:1154  2000 */\n      0x07d0\n        /* \"contracts/BN254.sol\":1143:1148  gas() */\n      gas\n        /* \"contracts/BN254.sol\":1139:1155  sub(gas(), 2000) */\n      sub\n        /* \"contracts/BN254.sol\":1128:1180  staticcall(sub(gas(), 2000), 8, input, 384, out, 32) */\n      staticcall\n        /* \"contracts/BN254.sol\":1117:1180  success := staticcall(sub(gas(), 2000), 8, input, 384, out, 32) */\n      swap1\n      pop\n        /* \"contracts/BN254.sol\":1196:1203  success */\n      dup1\n        /* \"contracts/BN254.sol\":1219:1220  0 */\n      0x00\n        /* \"contracts/BN254.sol\":1214:1256  case 0 {... */\n      dup2\n      sub\n        /* \"contracts/BN254.sol\":1189:1256  switch success... */\n      tag_30\n        /* \"contracts/BN254.sol\":1214:1256  case 0 {... */\n      jumpi\n        /* \"contracts/BN254.sol\":1235:1244  invalid() */\n      invalid\n        /* \"contracts/BN254.sol\":1189:1256  switch success... */\n    tag_30:\n      pop\n        /* \"contracts/BN254.sol\":1279:1286  success */\n      dup1\n        /* \"contracts/BN254.sol\":1271:1291  require(success, \"\") */\n      tag_32\n      jumpi\n      mload(0x40)\n      0x08c379a000000000000000000000000000000000000000000000000000000000\n      dup2\n      mstore\n      0x04\n      add\n      tag_33\n      swap1\n      tag_34\n      jump\t// in\n    tag_33:\n      mload(0x40)\n      dup1\n      swap2\n      sub\n      swap1\n      revert\n    tag_32:\n        /* \"contracts/BN254.sol\":1316:1317  0 */\n      0x00\n        /* \"contracts/BN254.sol\":1306:1309  out */\n      dup3\n        /* \"contracts/BN254.sol\":1310:1311  0 */\n      0x00\n        /* \"contracts/BN254.sol\":1306:1312  out[0] */\n      0x01\n      dup2\n      lt\n      tag_35\n      jumpi\n      tag_36\n      tag_13\n      jump\t// in\n    tag_36:\n    tag_35:\n      0x20\n      mul\n      add\n      mload\n        /* \"contracts/BN254.sol\":1306:1317  out[0] != 0 */\n      eq\n      iszero\n        /* \"contracts/BN254.sol\":1299:1317  return out[0] != 0 */\n      swap4\n      pop\n      pop\n      pop\n      pop\n        /* \"contracts/BN254.sol\":667:1324  function verifySingle(... */\n      swap4\n      swap3\n      pop\n      pop\n      pop\n      jump\t// out\n    tag_29:\n      mload(0x40)\n      dup1\n      0x20\n      add\n      0x40\n      mstore\n      dup1\n      0x01\n      swap1\n      0x20\n      dup3\n      mul\n      dup1\n      calldatasize\n      dup4\n      calldatacopy\n      dup1\n      dup3\n      add\n      swap2\n      pop\n      pop\n      swap1\n      pop\n      pop\n      swap1\n      jump\t// out\n        /* \"#utility.yul\":7:82   */\n    tag_37:\n        /* \"#utility.yul\":40:46   */\n      0x00\n        /* \"#utility.yul\":73:75   */\n      0x40\n        /* \"#utility.yul\":67:76   */\n      mload\n        /* \"#utility.yul\":57:76   */\n      swap1\n      pop\n        /* \"#utility.yul\":7:82   */\n      swap1\n      jump\t// out\n        /* \"#utility.yul\":88:205   */\n    tag_38:\n        /* \"#utility.yul\":197:198   */\n      0x00\n        /* \"#utility.yul\":194:195   */\n      dup1\n        /* \"#utility.yul\":187:199   */\n      revert\n        /* \"#utility.yul\":334:451   */\n    tag_40:\n        /* \"#utility.yul\":443:444   */\n      0x00\n        /* \"#utility.yul\":440:441   */\n      dup1\n        /* \"#utility.yul\":433:445   */\n      revert\n        /* \"#utility.yul\":457:559   */\n    tag_41:\n        /* \"#utility.yul\":498:504   */\n      0x00\n        /* \"#utility.yul\":549:551   */\n      0x1f\n        /* \"#utility.yul\":545:552   */\n      not\n        /* \"#utility.yul\":540:542   */\n      0x1f\n        /* \"#utility.yul\":533:538   */\n      dup4\n        /* \"#utility.yul\":529:543   */\n      add\n        /* \"#utility.yul\":525:553   */\n      and\n        /* \"#utility.yul\":515:553   */\n      swap1\n      pop\n        /* \"#utility.yul\":457:559   */\n      swap2\n      swap1\n      pop\n      jump\t// out\n        /* \"#utility.yul\":565:745   */\n    tag_42:\n        /* \"#utility.yul\":613:690   */\n      0x4e487b7100000000000000000000000000000000000000000000000000000000\n        /* \"#utility.yul\":610:611   */\n      0x00\n        /* \"#utility.yul\":603:691   */\n      mstore\n        /* \"#utility.yul\":710:714   */\n      0x41\n        /* \"#utility.yul\":707:708   */\n      0x04\n        /* \"#utility.yul\":700:715   */\n      mstore\n        /* \"#utility.yul\":734:738   */\n      0x24\n        /* \"#utility.yul\":731:732   */\n      0x00\n        /* \"#utility.yul\":724:739   */\n      revert\n        /* \"#utility.yul\":751:1032   */\n    tag_43:\n        /* \"#utility.yul\":834:861   */\n      tag_68\n        /* \"#utility.yul\":856:860   */\n      dup3\n        /* \"#utility.yul\":834:861   */\n      tag_41\n      jump\t// in\n    tag_68:\n        /* \"#utility.yul\":826:832   */\n      dup2\n        /* \"#utility.yul\":822:862   */\n      add\n        /* \"#utility.yul\":964:970   */\n      dup2\n        /* \"#utility.yul\":952:962   */\n      dup2\n        /* \"#utility.yul\":949:971   */\n      lt\n        /* \"#utility.yul\":928:946   */\n      0xffffffffffffffff\n        /* \"#utility.yul\":916:926   */\n      dup3\n        /* \"#utility.yul\":913:947   */\n      gt\n        /* \"#utility.yul\":910:972   */\n      or\n        /* \"#utility.yul\":907:995   */\n      iszero\n      tag_69\n      jumpi\n        /* \"#utility.yul\":975:993   */\n      tag_70\n      tag_42\n      jump\t// in\n    tag_70:\n        /* \"#utility.yul\":907:995   */\n    tag_69:\n        /* \"#utility.yul\":1015:1025   */\n      dup1\n        /* \"#utility.yul\":1011:1013   */\n      0x40\n        /* \"#utility.yul\":1004:1026   */\n      mstore\n        /* \"#utility.yul\":794:1032   */\n      pop\n        /* \"#utility.yul\":751:1032   */\n      pop\n      pop\n      jump\t// out\n        /* \"#utility.yul\":1038:1167   */\n    tag_44:\n        /* \"#utility.yul\":1072:1078   */\n      0x00\n        /* \"#utility.yul\":1099:1119   */\n      tag_72\n      tag_37\n      jump\t// in\n    tag_72:\n        /* \"#utility.yul\":1089:1119   */\n      swap1\n      pop\n        /* \"#utility.yul\":1128:1161   */\n      tag_73\n        /* \"#utility.yul\":1156:1160   */\n      dup3\n        /* \"#utility.yul\":1148:1154   */\n      dup3\n        /* \"#utility.yul\":1128:1161   */\n      tag_43\n      jump\t// in\n    tag_73:\n        /* \"#utility.yul\":1038:1167   */\n      swap2\n      swap1\n      pop\n      jump\t// out\n        /* \"#utility.yul\":1173:1422   */\n    tag_45:\n        /* \"#utility.yul\":1248:1252   */\n      0x00\n        /* \"#utility.yul\":1338:1356   */\n      0xffffffffffffffff\n        /* \"#utility.yul\":1330:1336   */\n      dup3\n        /* \"#utility.yul\":1327:1357   */\n      gt\n        /* \"#utility.yul\":1324:1380   */\n      iszero\n      tag_75\n      jumpi\n        /* \"#utility.yul\":1360:1378   */\n      tag_76\n      tag_42\n      jump\t// in\n    tag_76:\n        /* \"#utility.yul\":1324:1380   */\n    tag_75:\n        /* \"#utility.yul\":1410:1414   */\n      0x20\n        /* \"#utility.yul\":1402:1408   */\n      dup3\n        /* \"#utility.yul\":1398:1415   */\n      mul\n        /* \"#utility.yul\":1390:1415   */\n      swap1\n      pop\n        /* \"#utility.yul\":1173:1422   */\n      swap2\n      swap1\n      pop\n      jump\t// out\n        /* \"#utility.yul\":1428:1545   */\n    tag_46:\n        /* \"#utility.yul\":1537:1538   */\n      0x00\n        /* \"#utility.yul\":1534:1535   */\n      dup1\n        /* \"#utility.yul\":1527:1539   */\n      revert\n        /* \"#utility.yul\":1551:1628   */\n    tag_47:\n        /* \"#utility.yul\":1588:1595   */\n      0x00\n        /* \"#utility.yul\":1617:1622   */\n      dup2\n        /* \"#utility.yul\":1606:1622   */\n      swap1\n      pop\n        /* \"#utility.yul\":1551:1628   */\n      swap2\n      swap1\n      pop\n      jump\t// out\n        /* \"#utility.yul\":1634:1756   */\n    tag_48:\n        /* \"#utility.yul\":1707:1731   */\n      tag_80\n        /* \"#utility.yul\":1725:1730   */\n      dup2\n        /* \"#utility.yul\":1707:1731   */\n      tag_47\n      jump\t// in\n    tag_80:\n        /* \"#utility.yul\":1700:1705   */\n      dup2\n        /* \"#utility.yul\":1697:1732   */\n      eq\n        /* \"#utility.yul\":1687:1750   */\n      tag_81\n      jumpi\n        /* \"#utility.yul\":1746:1747   */\n      0x00\n        /* \"#utility.yul\":1743:1744   */\n      dup1\n        /* \"#utility.yul\":1736:1748   */\n      revert\n        /* \"#utility.yul\":1687:1750   */\n    tag_81:\n        /* \"#utility.yul\":1634:1756   */\n      pop\n      jump\t// out\n        /* \"#utility.yul\":1762:1901   */\n    tag_49:\n        /* \"#utility.yul\":1808:1813   */\n      0x00\n        /* \"#utility.yul\":1846:1852   */\n      dup2\n        /* \"#utility.yul\":1833:1853   */\n      calldataload\n        /* \"#utility.yul\":1824:1853   */\n      swap1\n      pop\n        /* \"#utility.yul\":1862:1895   */\n      tag_83\n        /* \"#utility.yul\":1889:1894   */\n      dup2\n        /* \"#utility.yul\":1862:1895   */\n      tag_48\n      jump\t// in\n    tag_83:\n        /* \"#utility.yul\":1762:1901   */\n      swap3\n      swap2\n      pop\n      pop\n      jump\t// out\n        /* \"#utility.yul\":1925:2568   */\n    tag_50:\n        /* \"#utility.yul\":2019:2024   */\n      0x00\n        /* \"#utility.yul\":2044:2123   */\n      tag_85\n        /* \"#utility.yul\":2060:2122   */\n      tag_86\n        /* \"#utility.yul\":2115:2121   */\n      dup5\n        /* \"#utility.yul\":2060:2122   */\n      tag_45\n      jump\t// in\n    tag_86:\n        /* \"#utility.yul\":2044:2123   */\n      tag_44\n      jump\t// in\n    tag_85:\n        /* \"#utility.yul\":2035:2123   */\n      swap1\n      pop\n        /* \"#utility.yul\":2143:2148   */\n      dup1\n        /* \"#utility.yul\":2196:2200   */\n      0x20\n        /* \"#utility.yul\":2188:2194   */\n      dup5\n        /* \"#utility.yul\":2184:2201   */\n      mul\n        /* \"#utility.yul\":2176:2182   */\n      dup4\n        /* \"#utility.yul\":2172:2202   */\n      add\n        /* \"#utility.yul\":2225:2228   */\n      dup6\n        /* \"#utility.yul\":2217:2223   */\n      dup2\n        /* \"#utility.yul\":2214:2229   */\n      gt\n        /* \"#utility.yul\":2211:2333   */\n      iszero\n      tag_87\n      jumpi\n        /* \"#utility.yul\":2244:2323   */\n      tag_88\n      tag_46\n      jump\t// in\n    tag_88:\n        /* \"#utility.yul\":2211:2333   */\n    tag_87:\n        /* \"#utility.yul\":2359:2365   */\n      dup4\n        /* \"#utility.yul\":2342:2562   */\n    tag_89:\n        /* \"#utility.yul\":2376:2382   */\n      dup2\n        /* \"#utility.yul\":2371:2374   */\n      dup2\n        /* \"#utility.yul\":2368:2383   */\n      lt\n        /* \"#utility.yul\":2342:2562   */\n      iszero\n      tag_91\n      jumpi\n        /* \"#utility.yul\":2451:2454   */\n      dup1\n        /* \"#utility.yul\":2480:2517   */\n      tag_92\n        /* \"#utility.yul\":2513:2516   */\n      dup9\n        /* \"#utility.yul\":2501:2511   */\n      dup3\n        /* \"#utility.yul\":2480:2517   */\n      tag_49\n      jump\t// in\n    tag_92:\n        /* \"#utility.yul\":2475:2478   */\n      dup5\n        /* \"#utility.yul\":2468:2518   */\n      mstore\n        /* \"#utility.yul\":2547:2551   */\n      0x20\n        /* \"#utility.yul\":2542:2545   */\n      dup5\n        /* \"#utility.yul\":2538:2552   */\n      add\n        /* \"#utility.yul\":2531:2552   */\n      swap4\n      pop\n        /* \"#utility.yul\":2418:2562   */\n      pop\n        /* \"#utility.yul\":2402:2406   */\n      0x20\n        /* \"#utility.yul\":2397:2400   */\n      dup2\n        /* \"#utility.yul\":2393:2407   */\n      add\n        /* \"#utility.yul\":2386:2407   */\n      swap1\n      pop\n        /* \"#utility.yul\":2342:2562   */\n      jump(tag_89)\n    tag_91:\n        /* \"#utility.yul\":2346:2367   */\n      pop\n        /* \"#utility.yul\":2025:2568   */\n      pop\n      pop\n        /* \"#utility.yul\":1925:2568   */\n      swap4\n      swap3\n      pop\n      pop\n      pop\n      jump\t// out\n        /* \"#utility.yul\":2592:2931   */\n    tag_51:\n        /* \"#utility.yul\":2661:2666   */\n      0x00\n        /* \"#utility.yul\":2710:2713   */\n      dup3\n        /* \"#utility.yul\":2703:2707   */\n      0x1f\n        /* \"#utility.yul\":2695:2701   */\n      dup4\n        /* \"#utility.yul\":2691:2708   */\n      add\n        /* \"#utility.yul\":2687:2714   */\n      slt\n        /* \"#utility.yul\":2677:2799   */\n      tag_94\n      jumpi\n        /* \"#utility.yul\":2718:2797   */\n      tag_95\n      tag_40\n      jump\t// in\n    tag_95:\n        /* \"#utility.yul\":2677:2799   */\n    tag_94:\n        /* \"#utility.yul\":2822:2826   */\n      0x02\n        /* \"#utility.yul\":2844:2925   */\n      tag_96\n        /* \"#utility.yul\":2921:2924   */\n      dup5\n        /* \"#utility.yul\":2913:2919   */\n      dup3\n        /* \"#utility.yul\":2905:2911   */\n      dup6\n        /* \"#utility.yul\":2844:2925   */\n      tag_50\n      jump\t// in\n    tag_96:\n        /* \"#utility.yul\":2835:2925   */\n      swap2\n      pop\n        /* \"#utility.yul\":2667:2931   */\n      pop\n        /* \"#utility.yul\":2592:2931   */\n      swap3\n      swap2\n      pop\n      pop\n      jump\t// out\n        /* \"#utility.yul\":2937:3186   */\n    tag_52:\n        /* \"#utility.yul\":3012:3016   */\n      0x00\n        /* \"#utility.yul\":3102:3120   */\n      0xffffffffffffffff\n        /* \"#utility.yul\":3094:3100   */\n      dup3\n        /* \"#utility.yul\":3091:3121   */\n      gt\n        /* \"#utility.yul\":3088:3144   */\n      iszero\n      tag_98\n      jumpi\n        /* \"#utility.yul\":3124:3142   */\n      tag_99\n      tag_42\n      jump\t// in\n    tag_99:\n        /* \"#utility.yul\":3088:3144   */\n    tag_98:\n        /* \"#utility.yul\":3174:3178   */\n      0x20\n        /* \"#utility.yul\":3166:3172   */\n      dup3\n        /* \"#utility.yul\":3162:3179   */\n      mul\n        /* \"#utility.yul\":3154:3179   */\n      swap1\n      pop\n        /* \"#utility.yul\":2937:3186   */\n      swap2\n      swap1\n      pop\n      jump\t// out\n        /* \"#utility.yul\":3210:3853   */\n    tag_53:\n        /* \"#utility.yul\":3304:3309   */\n      0x00\n        /* \"#utility.yul\":3329:3408   */\n      tag_101\n        /* \"#utility.yul\":3345:3407   */\n      tag_102\n        /* \"#utility.yul\":3400:3406   */\n      dup5\n        /* \"#utility.yul\":3345:3407   */\n      tag_52\n      jump\t// in\n    tag_102:\n        /* \"#utility.yul\":3329:3408   */\n      tag_44\n      jump\t// in\n    tag_101:\n        /* \"#utility.yul\":3320:3408   */\n      swap1\n      pop\n        /* \"#utility.yul\":3428:3433   */\n      dup1\n        /* \"#utility.yul\":3481:3485   */\n      0x20\n        /* \"#utility.yul\":3473:3479   */\n      dup5\n        /* \"#utility.yul\":3469:3486   */\n      mul\n        /* \"#utility.yul\":3461:3467   */\n      dup4\n        /* \"#utility.yul\":3457:3487   */\n      add\n        /* \"#utility.yul\":3510:3513   */\n      dup6\n        /* \"#utility.yul\":3502:3508   */\n      dup2\n        /* \"#utility.yul\":3499:3514   */\n      gt\n        /* \"#utility.yul\":3496:3618   */\n      iszero\n      tag_103\n      jumpi\n        /* \"#utility.yul\":3529:3608   */\n      tag_104\n      tag_46\n      jump\t// in\n    tag_104:\n        /* \"#utility.yul\":3496:3618   */\n    tag_103:\n        /* \"#utility.yul\":3644:3650   */\n      dup4\n        /* \"#utility.yul\":3627:3847   */\n    tag_105:\n        /* \"#utility.yul\":3661:3667   */\n      dup2\n        /* \"#utility.yul\":3656:3659   */\n      dup2\n        /* \"#utility.yul\":3653:3668   */\n      lt\n        /* \"#utility.yul\":3627:3847   */\n      iszero\n      tag_107\n      jumpi\n        /* \"#utility.yul\":3736:3739   */\n      dup1\n        /* \"#utility.yul\":3765:3802   */\n      tag_108\n        /* \"#utility.yul\":3798:3801   */\n      dup9\n        /* \"#utility.yul\":3786:3796   */\n      dup3\n        /* \"#utility.yul\":3765:3802   */\n      tag_49\n      jump\t// in\n    tag_108:\n        /* \"#utility.yul\":3760:3763   */\n      dup5\n        /* \"#utility.yul\":3753:3803   */\n      mstore\n        /* \"#utility.yul\":3832:3836   */\n      0x20\n        /* \"#utility.yul\":3827:3830   */\n      dup5\n        /* \"#utility.yul\":3823:3837   */\n      add\n        /* \"#utility.yul\":3816:3837   */\n      swap4\n      pop\n        /* \"#utility.yul\":3703:3847   */\n      pop\n        /* \"#utility.yul\":3687:3691   */\n      0x20\n        /* \"#utility.yul\":3682:3685   */\n      dup2\n        /* \"#utility.yul\":3678:3692   */\n      add\n        /* \"#utility.yul\":3671:3692   */\n      swap1\n      pop\n        /* \"#utility.yul\":3627:3847   */\n      jump(tag_105)\n    tag_107:\n        /* \"#utility.yul\":3631:3652   */\n      pop\n        /* \"#utility.yul\":3310:3853   */\n      pop\n      pop\n        /* \"#utility.yul\":3210:3853   */\n      swap4\n      swap3\n      pop\n      pop\n      pop\n      jump\t// out\n        /* \"#utility.yul\":3877:4216   */\n    tag_54:\n        /* \"#utility.yul\":3946:3951   */\n      0x00\n        /* \"#utility.yul\":3995:3998   */\n      dup3\n        /* \"#utility.yul\":3988:3992   */\n      0x1f\n        /* \"#utility.yul\":3980:3986   */\n      dup4\n        /* \"#utility.yul\":3976:3993   */\n      add\n        /* \"#utility.yul\":3972:3999   */\n      slt\n        /* \"#utility.yul\":3962:4084   */\n      tag_110\n      jumpi\n        /* \"#utility.yul\":4003:4082   */\n      tag_111\n      tag_40\n      jump\t// in\n    tag_111:\n        /* \"#utility.yul\":3962:4084   */\n    tag_110:\n        /* \"#utility.yul\":4107:4111   */\n      0x04\n        /* \"#utility.yul\":4129:4210   */\n      tag_112\n        /* \"#utility.yul\":4206:4209   */\n      dup5\n        /* \"#utility.yul\":4198:4204   */\n      dup3\n        /* \"#utility.yul\":4190:4196   */\n      dup6\n        /* \"#utility.yul\":4129:4210   */\n      tag_53\n      jump\t// in\n    tag_112:\n        /* \"#utility.yul\":4120:4210   */\n      swap2\n      pop\n        /* \"#utility.yul\":3952:4216   */\n      pop\n        /* \"#utility.yul\":3877:4216   */\n      swap3\n      swap2\n      pop\n      pop\n      jump\t// out\n        /* \"#utility.yul\":4222:4981   */\n    tag_6:\n        /* \"#utility.yul\":4368:4374   */\n      0x00\n        /* \"#utility.yul\":4376:4382   */\n      dup1\n        /* \"#utility.yul\":4384:4390   */\n      0x00\n        /* \"#utility.yul\":4433:4436   */\n      0x0100\n        /* \"#utility.yul\":4421:4430   */\n      dup5\n        /* \"#utility.yul\":4412:4419   */\n      dup7\n        /* \"#utility.yul\":4408:4431   */\n      sub\n        /* \"#utility.yul\":4404:4437   */\n      slt\n        /* \"#utility.yul\":4401:4521   */\n      iszero\n      tag_114\n      jumpi\n        /* \"#utility.yul\":4440:4519   */\n      tag_115\n      tag_38\n      jump\t// in\n    tag_115:\n        /* \"#utility.yul\":4401:4521   */\n    tag_114:\n        /* \"#utility.yul\":4560:4561   */\n      0x00\n        /* \"#utility.yul\":4585:4661   */\n      tag_116\n        /* \"#utility.yul\":4653:4660   */\n      dup7\n        /* \"#utility.yul\":4644:4650   */\n      dup3\n        /* \"#utility.yul\":4633:4642   */\n      dup8\n        /* \"#utility.yul\":4629:4651   */\n      add\n        /* \"#utility.yul\":4585:4661   */\n      tag_51\n      jump\t// in\n    tag_116:\n        /* \"#utility.yul\":4575:4661   */\n      swap4\n      pop\n        /* \"#utility.yul\":4531:4671   */\n      pop\n        /* \"#utility.yul\":4710:4712   */\n      0x40\n        /* \"#utility.yul\":4736:4812   */\n      tag_117\n        /* \"#utility.yul\":4804:4811   */\n      dup7\n        /* \"#utility.yul\":4795:4801   */\n      dup3\n        /* \"#utility.yul\":4784:4793   */\n      dup8\n        /* \"#utility.yul\":4780:4802   */\n      add\n        /* \"#utility.yul\":4736:4812   */\n      tag_54\n      jump\t// in\n    tag_117:\n        /* \"#utility.yul\":4726:4812   */\n      swap3\n      pop\n        /* \"#utility.yul\":4681:4822   */\n      pop\n        /* \"#utility.yul\":4861:4864   */\n      0xc0\n        /* \"#utility.yul\":4888:4964   */\n      tag_118\n        /* \"#utility.yul\":4956:4963   */\n      dup7\n        /* \"#utility.yul\":4947:4953   */\n      dup3\n        /* \"#utility.yul\":4936:4945   */\n      dup8\n        /* \"#utility.yul\":4932:4954   */\n      add\n        /* \"#utility.yul\":4888:4964   */\n      tag_51\n      jump\t// in\n    tag_118:\n        /* \"#utility.yul\":4878:4964   */\n      swap2\n      pop\n        /* \"#utility.yul\":4832:4974   */\n      pop\n        /* \"#utility.yul\":4222:4981   */\n      swap3\n      pop\n      swap3\n      pop\n      swap3\n      jump\t// out\n        /* \"#utility.yul\":4987:5077   */\n    tag_55:\n        /* \"#utility.yul\":5021:5028   */\n      0x00\n        /* \"#utility.yul\":5064:5069   */\n      dup2\n        /* \"#utility.yul\":5057:5070   */\n      iszero\n        /* \"#utility.yul\":5050:5071   */\n      iszero\n        /* \"#utility.yul\":5039:5071   */\n      swap1\n      pop\n        /* \"#utility.yul\":4987:5077   */\n      swap2\n      swap1\n      pop\n      jump\t// out\n        /* \"#utility.yul\":5083:5192   */\n    tag_56:\n        /* \"#utility.yul\":5164:5185   */\n      tag_121\n        /* \"#utility.yul\":5179:5184   */\n      dup2\n        /* \"#utility.yul\":5164:5185   */\n      tag_55\n      jump\t// in\n    tag_121:\n        /* \"#utility.yul\":5159:5162   */\n      dup3\n        /* \"#utility.yul\":5152:5186   */\n      mstore\n        /* \"#utility.yul\":5083:5192   */\n      pop\n      pop\n      jump\t// out\n        /* \"#utility.yul\":5198:5408   */\n    tag_9:\n        /* \"#utility.yul\":5285:5289   */\n      0x00\n        /* \"#utility.yul\":5323:5325   */\n      0x20\n        /* \"#utility.yul\":5312:5321   */\n      dup3\n        /* \"#utility.yul\":5308:5326   */\n      add\n        /* \"#utility.yul\":5300:5326   */\n      swap1\n      pop\n        /* \"#utility.yul\":5336:5401   */\n      tag_123\n        /* \"#utility.yul\":5398:5399   */\n      0x00\n        /* \"#utility.yul\":5387:5396   */\n      dup4\n        /* \"#utility.yul\":5383:5400   */\n      add\n        /* \"#utility.yul\":5374:5380   */\n      dup5\n        /* \"#utility.yul\":5336:5401   */\n      tag_56\n      jump\t// in\n    tag_123:\n        /* \"#utility.yul\":5198:5408   */\n      swap3\n      swap2\n      pop\n      pop\n      jump\t// out\n        /* \"#utility.yul\":5414:5594   */\n    tag_13:\n        /* \"#utility.yul\":5462:5539   */\n      0x4e487b7100000000000000000000000000000000000000000000000000000000\n        /* \"#utility.yul\":5459:5460   */\n      0x00\n        /* \"#utility.yul\":5452:5540   */\n      mstore\n        /* \"#utility.yul\":5559:5563   */\n      0x32\n        /* \"#utility.yul\":5556:5557   */\n      0x04\n        /* \"#utility.yul\":5549:5564   */\n      mstore\n        /* \"#utility.yul\":5583:5587   */\n      0x24\n        /* \"#utility.yul\":5580:5581   */\n      0x00\n        /* \"#utility.yul\":5573:5588   */\n      revert\n        /* \"#utility.yul\":5600:5769   */\n    tag_57:\n        /* \"#utility.yul\":5684:5695   */\n      0x00\n        /* \"#utility.yul\":5718:5724   */\n      dup3\n        /* \"#utility.yul\":5713:5716   */\n      dup3\n        /* \"#utility.yul\":5706:5725   */\n      mstore\n        /* \"#utility.yul\":5758:5762   */\n      0x20\n        /* \"#utility.yul\":5753:5756   */\n      dup3\n        /* \"#utility.yul\":5749:5763   */\n      add\n        /* \"#utility.yul\":5734:5763   */\n      swap1\n      pop\n        /* \"#utility.yul\":5600:5769   */\n      swap3\n      swap2\n      pop\n      pop\n      jump\t// out\n        /* \"#utility.yul\":5775:5889   */\n    tag_58:\n      pop\n      jump\t// out\n        /* \"#utility.yul\":5895:6259   */\n    tag_59:\n        /* \"#utility.yul\":6037:6040   */\n      0x00\n        /* \"#utility.yul\":6058:6124   */\n      tag_128\n        /* \"#utility.yul\":6122:6123   */\n      0x00\n        /* \"#utility.yul\":6117:6120   */\n      dup4\n        /* \"#utility.yul\":6058:6124   */\n      tag_57\n      jump\t// in\n    tag_128:\n        /* \"#utility.yul\":6051:6124   */\n      swap2\n      pop\n        /* \"#utility.yul\":6133:6226   */\n      tag_129\n        /* \"#utility.yul\":6222:6225   */\n      dup3\n        /* \"#utility.yul\":6133:6226   */\n      tag_58\n      jump\t// in\n    tag_129:\n        /* \"#utility.yul\":6251:6252   */\n      0x00\n        /* \"#utility.yul\":6246:6249   */\n      dup3\n        /* \"#utility.yul\":6242:6253   */\n      add\n        /* \"#utility.yul\":6235:6253   */\n      swap1\n      pop\n        /* \"#utility.yul\":5895:6259   */\n      swap2\n      swap1\n      pop\n      jump\t// out\n        /* \"#utility.yul\":6265:6684   */\n    tag_34:\n        /* \"#utility.yul\":6431:6435   */\n      0x00\n        /* \"#utility.yul\":6469:6471   */\n      0x20\n        /* \"#utility.yul\":6458:6467   */\n      dup3\n        /* \"#utility.yul\":6454:6472   */\n      add\n        /* \"#utility.yul\":6446:6472   */\n      swap1\n      pop\n        /* \"#utility.yul\":6518:6527   */\n      dup2\n        /* \"#utility.yul\":6512:6516   */\n      dup2\n        /* \"#utility.yul\":6508:6528   */\n      sub\n        /* \"#utility.yul\":6504:6505   */\n      0x00\n        /* \"#utility.yul\":6493:6502   */\n      dup4\n        /* \"#utility.yul\":6489:6506   */\n      add\n        /* \"#utility.yul\":6482:6529   */\n      mstore\n        /* \"#utility.yul\":6546:6677   */\n      tag_131\n        /* \"#utility.yul\":6672:6676   */\n      dup2\n        /* \"#utility.yul\":6546:6677   */\n      tag_59\n      jump\t// in\n    tag_131:\n        /* \"#utility.yul\":6538:6677   */\n      swap1\n      pop\n        /* \"#utility.yul\":6265:6684   */\n      swap2\n      swap1\n      pop\n      jump\t// out\n\n    auxdata: 0xa264697066735822122073e78b50e402aef3fd328cab3bb30addad67e755c7f8bd491f9c85a822a644e364736f6c634300080d0033\n}\n",
				"bytecode": {
					"linkReferences": {},
					"object": "608060405234801561001057600080fd5b5061062c806100206000396000f3fe608060405234801561001057600080fd5b506004361061002b5760003560e01c8063ebbdac9114610030575b600080fd5b61004a600480360381019061004591906104e6565b610060565b6040516100579190610555565b60405180910390f35b6000806040518061018001604052808660006002811061008357610082610570565b5b60200201518152602001866001600281106100a1576100a0610570565b5b602002015181526020017f198e9393920d483a7260bfb731fb5d25f1aa493335a9e71297e485b7aef312c281526020017f1800deef121f1e76426a00665e5c4479674322d4f75edadd46debd5cd992f6ed81526020017f275dc4a288d1afb3cbb1ac09187524c7db36395df7be3b99e673b13a075a65ec81526020017f1d9befcd05a5323e6da4d435f3b617cdb3af83285c2df711ef39c01571827f9d81526020018460006002811061015757610156610570565b5b602002015181526020018460016002811061017557610174610570565b5b602002015181526020018560016004811061019357610192610570565b5b60200201518152602001856000600481106101b1576101b0610570565b5b60200201518152602001856003600481106101cf576101ce610570565b5b60200201518152602001856002600481106101ed576101ec610570565b5b602002015181525090506101ff610287565b60006020826101808560086107d05a03fa9050806000810361021d57fe5b508061025e576040517f08c379a0000000000000000000000000000000000000000000000000000000008152600401610255906105d6565b60405180910390fd5b60008260006001811061027457610273610570565b5b6020020151141593505050509392505050565b6040518060200160405280600190602082028036833780820191505090505090565b6000604051905090565b600080fd5b600080fd5b6000601f19601f8301169050919050565b7f4e487b7100000000000000000000000000000000000000000000000000000000600052604160045260246000fd5b610306826102bd565b810181811067ffffffffffffffff82111715610325576103246102ce565b5b80604052505050565b60006103386102a9565b905061034482826102fd565b919050565b600067ffffffffffffffff821115610364576103636102ce565b5b602082029050919050565b600080fd5b6000819050919050565b61038781610374565b811461039257600080fd5b50565b6000813590506103a48161037e565b92915050565b60006103bd6103b884610349565b61032e565b905080602084028301858111156103d7576103d661036f565b5b835b8181101561040057806103ec8882610395565b8452602084019350506020810190506103d9565b5050509392505050565b600082601f83011261041f5761041e6102b8565b5b600261042c8482856103aa565b91505092915050565b600067ffffffffffffffff8211156104505761044f6102ce565b5b602082029050919050565b600061046e61046984610435565b61032e565b905080602084028301858111156104885761048761036f565b5b835b818110156104b1578061049d8882610395565b84526020840193505060208101905061048a565b5050509392505050565b600082601f8301126104d0576104cf6102b8565b5b60046104dd84828561045b565b91505092915050565b60008060006101008486031215610500576104ff6102b3565b5b600061050e8682870161040a565b935050604061051f868287016104bb565b92505060c06105308682870161040a565b9150509250925092565b60008115159050919050565b61054f8161053a565b82525050565b600060208201905061056a6000830184610546565b92915050565b7f4e487b7100000000000000000000000000000000000000000000000000000000600052603260045260246000fd5b600082825260208201905092915050565b50565b60006105c060008361059f565b91506105cb826105b0565b600082019050919050565b600060208201905081810360008301526105ef816105b3565b905091905056fea264697066735822122073e78b50e402aef3fd328cab3bb30addad67e755c7f8bd491f9c85a822a644e364736f6c634300080d0033",
					"opcodes": "PUSH1 0x80 PUSH1 0x40 MSTORE CALLVALUE DUP1 ISZERO PUSH2 0x10 JUMPI PUSH1 0x0 DUP1 REVERT JUMPDEST POP PUSH2 0x62C DUP1 PUSH2 0x20 PUSH1 0x0 CODECOPY PUSH1 0x0 RETURN INVALID PUSH1 0x80 PUSH1 0x40 MSTORE CALLVALUE DUP1 ISZERO PUSH2 0x10 JUMPI PUSH1 0x0 DUP1 REVERT JUMPDEST POP PUSH1 0x4 CALLDATASIZE LT PUSH2 0x2B JUMPI PUSH1 0x0 CALLDATALOAD PUSH1 0xE0 SHR DUP1 PUSH4 0xEBBDAC91 EQ PUSH2 0x30 JUMPI JUMPDEST PUSH1 0x0 DUP1 REVERT JUMPDEST PUSH2 0x4A PUSH1 0x4 DUP1 CALLDATASIZE SUB DUP2 ADD SWAP1 PUSH2 0x45 SWAP2 SWAP1 PUSH2 0x4E6 JUMP JUMPDEST PUSH2 0x60 JUMP JUMPDEST PUSH1 0x40 MLOAD PUSH2 0x57 SWAP2 SWAP1 PUSH2 0x555 JUMP JUMPDEST PUSH1 0x40 MLOAD DUP1 SWAP2 SUB SWAP1 RETURN JUMPDEST PUSH1 0x0 DUP1 PUSH1 0x40 MLOAD DUP1 PUSH2 0x180 ADD PUSH1 0x40 MSTORE DUP1 DUP7 PUSH1 0x0 PUSH1 0x2 DUP2 LT PUSH2 0x83 JUMPI PUSH2 0x82 PUSH2 0x570 JUMP JUMPDEST JUMPDEST PUSH1 0x20 MUL ADD MLOAD DUP2 MSTORE PUSH1 0x20 ADD DUP7 PUSH1 0x1 PUSH1 0x2 DUP2 LT PUSH2 0xA1 JUMPI PUSH2 0xA0 PUSH2 0x570 JUMP JUMPDEST JUMPDEST PUSH1 0x20 MUL ADD MLOAD DUP2 MSTORE PUSH1 0x20 ADD PUSH32 0x198E9393920D483A7260BFB731FB5D25F1AA493335A9E71297E485B7AEF312C2 DUP2 MSTORE PUSH1 0x20 ADD PUSH32 0x1800DEEF121F1E76426A00665E5C4479674322D4F75EDADD46DEBD5CD992F6ED DUP2 MSTORE PUSH1 0x20 ADD PUSH32 0x275DC4A288D1AFB3CBB1AC09187524C7DB36395DF7BE3B99E673B13A075A65EC DUP2 MSTORE PUSH1 0x20 ADD PUSH32 0x1D9BEFCD05A5323E6DA4D435F3B617CDB3AF83285C2DF711EF39C01571827F9D DUP2 MSTORE PUSH1 0x20 ADD DUP5 PUSH1 0x0 PUSH1 0x2 DUP2 LT PUSH2 0x157 JUMPI PUSH2 0x156 PUSH2 0x570 JUMP JUMPDEST JUMPDEST PUSH1 0x20 MUL ADD MLOAD DUP2 MSTORE PUSH1 0x20 ADD DUP5 PUSH1 0x1 PUSH1 0x2 DUP2 LT PUSH2 0x175 JUMPI PUSH2 0x174 PUSH2 0x570 JUMP JUMPDEST JUMPDEST PUSH1 0x20 MUL ADD MLOAD DUP2 MSTORE PUSH1 0x20 ADD DUP6 PUSH1 0x1 PUSH1 0x4 DUP2 LT PUSH2 0x193 JUMPI PUSH2 0x192 PUSH2 0x570 JUMP JUMPDEST JUMPDEST PUSH1 0x20 MUL ADD MLOAD DUP2 MSTORE PUSH1 0x20 ADD DUP6 PUSH1 0x0 PUSH1 0x4 DUP2 LT PUSH2 0x1B1 JUMPI PUSH2 0x1B0 PUSH2 0x570 JUMP JUMPDEST JUMPDEST PUSH1 0x20 MUL ADD MLOAD DUP2 MSTORE PUSH1 0x20 ADD DUP6 PUSH1 0x3 PUSH1 0x4 DUP2 LT PUSH2 0x1CF JUMPI PUSH2 0x1CE PUSH2 0x570 JUMP JUMPDEST JUMPDEST PUSH1 0x20 MUL ADD MLOAD DUP2 MSTORE PUSH1 0x20 ADD DUP6 PUSH1 0x2 PUSH1 0x4 DUP2 LT PUSH2 0x1ED JUMPI PUSH2 0x1EC PUSH2 0x570 JUMP JUMPDEST JUMPDEST PUSH1 0x20 MUL ADD MLOAD DUP2 MSTORE POP SWAP1 POP PUSH2 0x1FF PUSH2 0x287 JUMP JUMPDEST PUSH1 0x0 PUSH1 0x20 DUP3 PUSH2 0x180 DUP6 PUSH1 0x8 PUSH2 0x7D0 GAS SUB STATICCALL SWAP1 POP DUP1 PUSH1 0x0 DUP2 SUB PUSH2 0x21D JUMPI INVALID JUMPDEST POP DUP1 PUSH2 0x25E JUMPI PUSH1 0x40 MLOAD PUSH32 0x8C379A000000000000000000000000000000000000000000000000000000000 DUP2 MSTORE PUSH1 0x4 ADD PUSH2 0x255 SWAP1 PUSH2 0x5D6 JUMP JUMPDEST PUSH1 0x40 MLOAD DUP1 SWAP2 SUB SWAP1 REVERT JUMPDEST PUSH1 0x0 DUP3 PUSH1 0x0 PUSH1 0x1 DUP2 LT PUSH2 0x274 JUMPI PUSH2 0x273 PUSH2 0x570 JUMP JUMPDEST JUMPDEST PUSH1 0x20 MUL ADD MLOAD EQ ISZERO SWAP4 POP POP POP POP SWAP4 SWAP3 POP POP POP JUMP JUMPDEST PUSH1 0x40 MLOAD DUP1 PUSH1 0x20 ADD PUSH1 0x40 MSTORE DUP1 PUSH1 0x1 SWAP1 PUSH1 0x20 DUP3 MUL DUP1 CALLDATASIZE DUP4 CALLDATACOPY DUP1 DUP3 ADD SWAP2 POP POP SWAP1 POP POP SWAP1 JUMP JUMPDEST PUSH1 0x0 PUSH1 0x40 MLOAD SWAP1 POP SWAP1 JUMP JUMPDEST PUSH1 0x0 DUP1 REVERT JUMPDEST PUSH1 0x0 DUP1 REVERT JUMPDEST PUSH1 0x0 PUSH1 0x1F NOT PUSH1 0x1F DUP4 ADD AND SWAP1 POP SWAP2 SWAP1 POP JUMP JUMPDEST PUSH32 0x4E487B7100000000000000000000000000000000000000000000000000000000 PUSH1 0x0 MSTORE PUSH1 0x41 PUSH1 0x4 MSTORE PUSH1 0x24 PUSH1 0x0 REVERT JUMPDEST PUSH2 0x306 DUP3 PUSH2 0x2BD JUMP JUMPDEST DUP2 ADD DUP2 DUP2 LT PUSH8 0xFFFFFFFFFFFFFFFF DUP3 GT OR ISZERO PUSH2 0x325 JUMPI PUSH2 0x324 PUSH2 0x2CE JUMP JUMPDEST JUMPDEST DUP1 PUSH1 0x40 MSTORE POP POP POP JUMP JUMPDEST PUSH1 0x0 PUSH2 0x338 PUSH2 0x2A9 JUMP JUMPDEST SWAP1 POP PUSH2 0x344 DUP3 DUP3 PUSH2 0x2FD JUMP JUMPDEST SWAP2 SWAP1 POP JUMP JUMPDEST PUSH1 0x0 PUSH8 0xFFFFFFFFFFFFFFFF DUP3 GT ISZERO PUSH2 0x364 JUMPI PUSH2 0x363 PUSH2 0x2CE JUMP JUMPDEST JUMPDEST PUSH1 0x20 DUP3 MUL SWAP1 POP SWAP2 SWAP1 POP JUMP JUMPDEST PUSH1 0x0 DUP1 REVERT JUMPDEST PUSH1 0x0 DUP2 SWAP1 POP SWAP2 SWAP1 POP JUMP JUMPDEST PUSH2 0x387 DUP2 PUSH2 0x374 JUMP JUMPDEST DUP2 EQ PUSH2 0x392 JUMPI PUSH1 0x0 DUP1 REVERT JUMPDEST POP JUMP JUMPDEST PUSH1 0x0 DUP2 CALLDATALOAD SWAP1 POP PUSH2 0x3A4 DUP2 PUSH2 0x37E JUMP JUMPDEST SWAP3 SWAP2 POP POP JUMP JUMPDEST PUSH1 0x0 PUSH2 0x3BD PUSH2 0x3B8 DUP5 PUSH2 0x349 JUMP JUMPDEST PUSH2 0x32E JUMP JUMPDEST SWAP1 POP DUP1 PUSH1 0x20 DUP5 MUL DUP4 ADD DUP6 DUP2 GT ISZERO PUSH2 0x3D7 JUMPI PUSH2 0x3D6 PUSH2 0x36F JUMP JUMPDEST JUMPDEST DUP4 JUMPDEST DUP2 DUP2 LT ISZERO PUSH2 0x400 JUMPI DUP1 PUSH2 0x3EC DUP9 DUP3 PUSH2 0x395 JUMP JUMPDEST DUP5 MSTORE PUSH1 0x20 DUP5 ADD SWAP4 POP POP PUSH1 0x20 DUP2 ADD SWAP1 POP PUSH2 0x3D9 JUMP JUMPDEST POP POP POP SWAP4 SWAP3 POP POP POP JUMP JUMPDEST PUSH1 0x0 DUP3 PUSH1 0x1F DUP4 ADD SLT PUSH2 0x41F JUMPI PUSH2 0x41E PUSH2 0x2B8 JUMP JUMPDEST JUMPDEST PUSH1 0x2 PUSH2 0x42C DUP5 DUP3 DUP6 PUSH2 0x3AA JUMP JUMPDEST SWAP2 POP POP SWAP3 SWAP2 POP POP JUMP JUMPDEST PUSH1 0x0 PUSH8 0xFFFFFFFFFFFFFFFF DUP3 GT ISZERO PUSH2 0x450 JUMPI PUSH2 0x44F PUSH2 0x2CE JUMP JUMPDEST JUMPDEST PUSH1 0x20 DUP3 MUL SWAP1 POP SWAP2 SWAP1 POP JUMP JUMPDEST PUSH1 0x0 PUSH2 0x46E PUSH2 0x469 DUP5 PUSH2 0x435 JUMP JUMPDEST PUSH2 0x32E JUMP JUMPDEST SWAP1 POP DUP1 PUSH1 0x20 DUP5 MUL DUP4 ADD DUP6 DUP2 GT ISZERO PUSH2 0x488 JUMPI PUSH2 0x487 PUSH2 0x36F JUMP JUMPDEST JUMPDEST DUP4 JUMPDEST DUP2 DUP2 LT ISZERO PUSH2 0x4B1 JUMPI DUP1 PUSH2 0x49D DUP9 DUP3 PUSH2 0x395 JUMP JUMPDEST DUP5 MSTORE PUSH1 0x20 DUP5 ADD SWAP4 POP POP PUSH1 0x20 DUP2 ADD SWAP1 POP PUSH2 0x48A JUMP JUMPDEST POP POP POP SWAP4 SWAP3 POP POP POP JUMP JUMPDEST PUSH1 0x0 DUP3 PUSH1 0x1F DUP4 ADD SLT PUSH2 0x4D0 JUMPI PUSH2 0x4CF PUSH2 0x2B8 JUMP JUMPDEST JUMPDEST PUSH1 0x4 PUSH2 0x4DD DUP5 DUP3 DUP6 PUSH2 0x45B JUMP JUMPDEST SWAP2 POP POP SWAP3 SWAP2 POP POP JUMP JUMPDEST PUSH1 0x0 DUP1 PUSH1 0x0 PUSH2 0x100 DUP5 DUP7 SUB SLT ISZERO PUSH2 0x500 JUMPI PUSH2 0x4FF PUSH2 0x2B3 JUMP JUMPDEST JUMPDEST PUSH1 0x0 PUSH2 0x50E DUP7 DUP3 DUP8 ADD PUSH2 0x40A JUMP JUMPDEST SWAP4 POP POP PUSH1 0x40 PUSH2 0x51F DUP7 DUP3 DUP8 ADD PUSH2 0x4BB JUMP JUMPDEST SWAP3 POP POP PUSH1 0xC0 PUSH2 0x530 DUP7 DUP3 DUP8 ADD PUSH2 0x40A JUMP JUMPDEST SWAP2 POP POP SWAP3 POP SWAP3 POP SWAP3 JUMP JUMPDEST PUSH1 0x0 DUP2 ISZERO ISZERO SWAP1 POP SWAP2 SWAP1 POP JUMP JUMPDEST PUSH2 0x54F DUP2 PUSH2 0x53A JUMP JUMPDEST DUP3 MSTORE POP POP JUMP JUMPDEST PUSH1 0x0 PUSH1 0x20 DUP3 ADD SWAP1 POP PUSH2 0x56A PUSH1 0x0 DUP4 ADD DUP5 PUSH2 0x546 JUMP JUMPDEST SWAP3 SWAP2 POP POP JUMP JUMPDEST PUSH32 0x4E487B7100000000000000000000000000000000000000000000000000000000 PUSH1 0x0 MSTORE PUSH1 0x32 PUSH1 0x4 MSTORE PUSH1 0x24 PUSH1 0x0 REVERT JUMPDEST PUSH1 0x0 DUP3 DUP3 MSTORE PUSH1 0x20 DUP3 ADD SWAP1 POP SWAP3 SWAP2 POP POP JUMP JUMPDEST POP JUMP JUMPDEST PUSH1 0x0 PUSH2 0x5C0 PUSH1 0x0 DUP4 PUSH2 0x59F JUMP JUMPDEST SWAP2 POP PUSH2 0x5CB DUP3 PUSH2 0x5B0 JUMP JUMPDEST PUSH1 0x0 DUP3 ADD SWAP1 POP SWAP2 SWAP1 POP JUMP JUMPDEST PUSH1 0x0 PUSH1 0x20 DUP3 ADD SWAP1 POP DUP2 DUP2 SUB PUSH1 0x0 DUP4 ADD MSTORE PUSH2 0x5EF DUP2 PUSH2 0x5B3 JUMP JUMPDEST SWAP1 POP SWAP2 SWAP1 POP JUMP INVALID LOG2 PUSH5 0x6970667358 0x22 SLT KECCAK256 PUSH20 0xE78B50E402AEF3FD328CAB3BB30ADDAD67E755C7 0xF8 0xBD 0x49 0x1F SWAP13 DUP6 0xA8 0x22 0xA6 DIFFICULTY 0xE3 PUSH5 0x736F6C6343 STOP ADDMOD 0xD STOP CALLER "
				},
				"gasEstimates": {
					"creation": {
						"codeDepositCost": "316000",
						"executionCost": "355",
						"totalCost": "316355"
					},
					"external": {
						"verifySingle(uint256[2],uint256[4],uint256[2])": "infinite"
					}
				},
				"methodIdentifiers": {
					"verifySingle(uint256[2],uint256[4],uint256[2])": "ebbdac91"
				}
			},
			"storageLayout": {
				"storage": [],
				"types": null
			},
			"userdoc": {
				"kind": "user",
				"methods": {},
				"version": 1
			}
		}
	}
}